:02000004080AE8
:1000000000000A08042F0A08000005000600050188
:080010000402EA0300000000F5
:10001800E02B0A0809480A4908B5884205D0094A68
:10002800824202D0121A02F093FD0748074A0021C3
:10003800121A02F098FD064808BD00BF0003002010
:10004800742E0A08680300206803002008090020AD
:100058000809002070B501F011FF074B074C1E4638
:10006800E41AA4080025A54204D056F8253098477C
:100078000135F8E770BD00BF342E0A08682E0A085B
:1000880000F00CB908B500F00EF8BDE8084001F022
:10009800B7BE01F001BC0078B0FA80F040097047A3
:1000A8000123037070477047014800F0A3B900BFEF
:1000B8006C03002010B50446084611461A4601F0A4
:1000C8009EFAA1B20246BDE81040014801F04CBAC0
:1000D8006C030020F8B505460E4617460024204656
:1000E8003B46324629460134FFF7E4FF442CF6D15B
:1000F800BDE8F840FFF7D8BF2DE9F04F83468A46A0
:10010800914687B00024204602F02CFA00223F4B8B
:1001180002F08EFA064658460F4602F023FACDE959
:100128000001504602F01EFACDE90201484602F0ED
:1001380019FA02460B46CDE904013046394602F069
:1001480077FA02F087FC02F0D5FCDDE902235FFABA
:1001580080F83946304602F06BFA02F07BFC02F078
:10016800C9FCDDE90023C5B23946304602F060FA21
:1001780002F070FC02F0BEFC42462946C0B2FFF70E
:10018800A9FF0134FFF790FF0A2001F08DFBB4F5B9
:10019800807FB8D1FF24204602F0E4F900221B4BEF
:1001A80002F046FA02460B4606460F46DDE9040110
:1001B80002F03EFA02F04EFC02F09CFC32463B464E
:1001C8005FFA80F8DDE9020102F032FA02F042FC3F
:1001D80002F090FC3B463246C5B2DDE9000102F070
:1001E80027FA02F037FC02F085FC42462946C0B2E5
:1001F800FFF770FF023CFFF757FF0A2001F054FB9E
:10020800631CC8D107B0BDE8F08F00BF0000703F85
:100218002DE9F84F81468A4693460024204602F08D
:10022800A1F900221C4B02F003FA06460F46584675
:1002380002F098F932463B4602F0FAF902F00AFC5D
:1002480002F058FC5FFA80F8504602F08BF932460B
:100258003B4602F0EDF902F0FDFB02F04BFCC5B2A3
:10026800484602F07FF93B46324602F0E1F902F0D7
:10027800F1FB02F03FFC42462946C0B2FFF72AFFD5
:100288000134FFF711FF0A2001F00EFBB4F5807F5F
:10029800C4D1BDE8F88F00BF0000703F10B5094C0D
:1002A800204600F071F8204600F0A4F8002211461C
:1002B800FF20FFF721FFBDE810400021FF2208467C
:1002C800FFF7A6BF6C03002037B501F0CFF94FF652
:1002D8009C73134C002563804FF6FF730120A380A5
:1002E800257001F09DFA02A840F8045D2A462946C7
:1002F80001F09CF9019B1E2B04D1032323701123C9
:100308006580A38002231A464421064800F061F85C
:10031800054A0649034801F085FE03B030BD00BF19
:10032800800300206C030020680300203D030A08B6
:1003380001F08CB910B50446C06808B101F0ACFAF8
:1003480023781BB10021E07901F0E8FD204610BDBB
:1003580038B50446C0680D4608B101F09DFAA37986
:10036800062B0CBF04200320684380B2A08001F054
:100378008BFAE06028B1A288002102F0F4FB6580C6
:1003880038BDA080608038BD10B504460121C07911
:1003980001F0C4FD0021E07901F0D1FD01232370B3
:1003A80010BD38B5037805460C461BB10021C0794D
:1003B80001F0B4FD2B78EC7153B1A4B220460121B1
:1003C80001F0ACFD2046BDE83840002101F0B7BD82
:1003D80038BD70B504461646002583710570057250
:1003E800C5600561FFF7B4FF20463146FFF7D9FF26
:1003F800204670BDC368002B00F08E852DE9F041C2
:100408000446837986B0023BDBB2042B96BF294AA7
:10041800322552F82350FFF78BFF2369C01AA842F0
:10042800F9D372B6A179A3880229ADF80A30D4F8B5
:100438000CE000F07282072900F06F82062900F0B4
:100448003284052900F0AB83082900F0A88300292D
:1004580040F06385184A4FF40006BDF80A309BB295
:10046800002B00F095830496BDF80A300EF10305C1
:10047800033B9BB2ADF80A309EF80030DBB28DF832
:1004880007309EF80130DBB28DF806309EF8023056
:10049800DBB28DF808309DF807709DF806309DF89E
:1004A80008001B0243EA0743034303938DF8051032
:1004B8001BE100BFF42B0A0888030020004600BF98
:1004C80000BF00BF00BF00BF00BF00BF00BF00BF2C
:1004D80000BF00BF00BF00BF00BF00BF00BF00BF1C
:1004E80000BF00BF00BF00BF00BF00BF00BF00BF0C
:1004F80000BF00BF00BF00BF00BF00BF00BF00BFFC
:1005080000BF00BF00BF00BF00BF00BF00BF00BFEB
:1005180000BF00BF00BF00BF00BF00BF00BF00BFDB
:1005280000BF00BF00BF00BF00BF00BF00BF00BFCB
:1005380000BF00BF00BF00BF00BF00BF00BF00BFBB
:1005480000BF00BF00BF00BF00BF00BF00BF00BFAB
:1005580000BF00BF00BF00BF00BF00BF00BF00BF9B
:1005680000BF00BF00BF00BF00BF00BF00BF00BF8B
:1005780000BF00BF00BF00BF00BF00BF00BF00BF7B
:1005880000BF00BF00BF00BF00BF00BF00BF00BF6B
:1005980000BF00BF00BF00BF00BF00BF00BF00BF5B
:1005A80000BF00BF00BF00BF00BF00BF00BF00BF4B
:1005B80000BF00BF00BF00BF00BF00BF00BF00BF3B
:1005C80000BF00BFE3791068C3EBC30300EB8307E8
:1005D800BF8850F823305F83004600BF00BF00BFCC
:1005E80000BF00BF00BF00BF00BF00BF00BF00BF0B
:1005F80000BF00BF00BF00BF00BF00BF00BF00BFFB
:1006080000BF00BF00BF00BF00BF00BF00BF00BFEA
:1006180000BF00BF00BF00BF00BF00BF00BF00BFDA
:1006280000BF00BF00BF00BF00BF00BF00BF00BFCA
:1006380000BF00BF00BF00BF00BF00BF00BF00BFBA
:1006480000BF00BF00BF00BF00BF00BF00BF00BFAA
:1006580000BF00BF00BF00BF00BF00BF00BF00BF9A
:1006680000BF00BF00BF00BF00BF00BF00BF00BF8A
:1006780000BF00BF00BF00BF00BF00BF00BF00BF7A
:1006880000BF00BF00BF00BF00BF00BF00BF00BF6A
:1006980000BF00BF00BF00BF00BF00BF00BF00BF5A
:1006A80000BF00BF00BF00BF00BF00BF00BF00BF4A
:1006B80000BF00BF00BF00BF00BF00BF00BF00BF3A
:1006C80000BF00BF00BF00BF00BF00BF00BF00BF2A
:1006D80000BF049B5B0804939DF805300133DBB22F
:1006E800172B8DF8053000F2DB82E3791068C3EB35
:1006F800C30300EB8307BF8850F823301F83039898
:10070800049B18427FF4DAAE004600BF00BF00BF6A
:1007180000BF00BF00BF00BF00BF00BF00BF00BFD9
:1007280000BF00BF00BF00BF00BF00BF00BF00BFC9
:1007380000BF00BF00BF00BF00BF00BF00BF00BFB9
:1007480000BF00BF00BF00BF00BF00BF00BF00BFA9
:1007580000BF00BF00BF00BF00BFE3791068C3EB54
:10076800C30300EB8307BF8850F823305F8300463C
:1007780000BF00BF00BF00BF00BF00BF00BF00BF79
:1007880000BF00BF00BF00BF00BF00BF00BF00BF69
:1007980000BF00BF00BF00BF00BF00BF00BF00BF59
:1007A80000BF00BF00BF00BF00BF00BF00BF00BF49
:1007B80000BF00BF00BF00BF00BF00BF00BF00BF39
:1007C80000BF00BF00BF00BF00BF00BF00BF00BF29
:1007D80000BF00BF00BF00BF00BF00BF00BF00BF19
:1007E80000BF00BF00BF00BF00BF00BF00BF00BF09
:1007F80000BF00BF00BF00BF00BF00BF00BF00BFF9
:1008080000BF00BF00BF00BF00BF00BF00BF00BFE8
:1008180000BF00BF00BF00BF00BF00BF00BF00BFD8
:1008280000BF00BF00BF00BF00BF00BF00BF00BFC8
:1008380000BF00BF00BF00BF00BF00BF00BF00BFB8
:1008480000BF00BF00BF00BF00BF00BF00BF00BFA8
:1008580000BF00BF00BF00BF00BF00BF00BF00BF98
:1008680000BF00BF00BF00BF00BF00BF00BF00BF88
:1008780000BF00BF00BF00BF00BF00BF00BF00BF78
:1008880000BF00BF00BF00BF00BF00BF00BF00BF68
:1008980000BF00BF00BF00BF00BF00BF00BF00BF58
:1008A80000BF00BF00BF00BF00BF00BF00BF00BF48
:1008B80000BF00BF00BF00BF00BF00BF00BF00BF38
:1008C80000BF00BF00BF00BF00BF00BF00BF00BF28
:1008D80000BF00BF00BF00BF00BF00BF00BF00BF18
:1008E80000BF00BF00BF00BF00BF00BF00BF00BF08
:1008F80000BF00BF00BF00BF00BF00BF00BF00BFF8
:1009080000BF00BF00BF00BF00BF00BF00BF00BFE7
:1009180000BF00BF00BF00BFDBE6BDF80A30174AC2
:100928009BB24FF400050026002B00F0318104959E
:10093800BDF80A300EF10301033B9BB2ADF80A3053
:100948009EF80030DBB28DF806309EF80130DBB23D
:100958008DF807309EF80230DBB28DF808309DF82C
:1009680006309DF807009DF80870000240EA03432E
:100978003B4303938DF8056080E000BF88030020A7
:10098800004600BF00BF00BF00BF00BF00BF00BFE0
:1009980000BF00BF00BF00BF00BF00BF00BF00BF57
:1009A80000BF00BF00BF00BF00BF00BF00BF00BF47
:1009B80000BF00BF00BF00BF00BF00BF00BF00BF37
:1009C80000BF00BF00BF00BF00BF00BF00BF00BF27
:1009D80000BF00BF00BF00BF00BF00BF00BF00BF17
:1009E80000BF00BF00BF00BF00BF00BF00BF00BF07
:1009F80000BF00BF00BF00BF00BF00BF00BF00BFF7
:100A080000BF00BF00BF00BF00BF00BF00BF00BFE6
:100A180000BF00BF00BF00BF00BFE3791068C3EB91
:100A2800C30300EB8307BF8850F823305F83004679
:100A380000BF00BF00BF00BF00BF00BF00BF00BFB6
:100A480000BF00BF00BF00BF00BF00BF00BF00BFA6
:100A580000BF00BF00BF00BF00BF00BF00BF00BF96
:100A680000BF00BF049B5B0804939DF80530013369
:100A7800DBB2172B8DF8053000F28380E37910681C
:100A8800C3EBC30300EB8307BF8850F823301F83F1
:100A98000398049B18427FF473AF004600BF00BF61
:100AA80000BF00BF00BF00BF00BF00BF00BF00BF46
:100AB80000BF00BF00BF00BF00BF00BF00BF00BF36
:100AC80000BFE3791068C3EBC30300EB8307BF885B
:100AD80050F823305F83004600BF00BF00BF00BF4F
:100AE80000BF00BF00BF00BF00BF00BF00BF00BF06
:100AF80000BF00BF00BF00BF00BF00BF00BF00BFF6
:100B080000BF00BF00BF00BF00BF00BF00BF00BFE5
:100B180000BF00BF00BF00BF00BF00BF00BF00BFD5
:100B280000BF00BF00BF00BF00BF00BF00BF00BFC5
:100B380000BF00BF00BF00BF00BF00BF00BF00BFB5
:100B480000BF00BF00BF00BF00BF00BF00BF00BFA5
:100B580000BF00BF00BF00BF00BF00BF00BF00BF95
:100B680000BF00BF00BF00BF00BF00BF00BF00BF85
:100B780000BF00BF00BF00BF00BF00BF00BF00BF75
:100B880070E7BDF80A308E469BB2002B7FF4CFAEDB
:100B980062B6FFF7CDFB206106B0BDE8F0815E4B81
:100BA8005E4A184611684FF400080027BDF80A206D
:100BB80092B2002AECD0CDF81080BDF80A200EF1D0
:100BC8000305033A92B2ADF80A209EF80020D2B28B
:100BD8008DF806209EF80120D2B28DF807209EF8E5
:100BE8000220D2B28DF808209DF806209DF807E073
:100BF8009DF808C04FEA0E2E4EEA024242EA0C0265
:100C080003928DF80570E2795E68C2EBC20201EBCF
:100C1800820EBEF804E051F822200596A2F818E0EA
:100C2800039E049A164223D05A68059E921B4F2AA7
:100C3800FAD9E279C2EBC20201EB820EBEF804E0F7
:100C480051F82220A2F81AE0426805925A68059ED7
:100C5800921B072AFAD9049A520804929DF8052093
:100C68000132D2B2172A8DF80520CCD9AE469DE7BD
:100C78005A68059E921B182AFAD9E279C2EBC20279
:100C880001EB820EBEF804E051F82220A2F81AE027
:100C9800426805925A68059E921B452AFAD9DAE7F6
:100CA800AE46FFF7DABB1D4A4FF000450026BDF8F7
:100CB8000A309BB2002B3FF46BAF0495BDF80A30A5
:100CC8000EF10401043B9BB2ADF80A309EF80030E7
:100CD800DBB28DF807309EF80130DBB28DF80630B4
:100CE8009EF80230DBB28DF808309EF80330DBB294
:100CF8008DF809309DF807309DF806709DF808E0DA
:100D08003F049DF8090047EA0363034343EA0E23BF
:100D180003938DF805607EE0001000E08803002052
:100D2800004600BF00BF00BF00BF00BF00BF00BF3C
:100D380000BF00BF00BF00BF00BF00BF00BF00BFB3
:100D480000BF00BF00BF00BF00BF00BF00BF00BFA3
:100D580000BF00BF00BF00BF00BF00BF00BF00BF93
:100D680000BF00BF00BF00BF00BF00BF00BF00BF83
:100D780000BF00BF00BF00BF00BF00BF00BF00BF73
:100D880000BF00BF00BF00BF00BF00BF00BFE379C6
:100D98001068C3EBC30300EB8307BF8850F8233008
:100DA8005F83004600BF00BF00BF00BF00BF00BF99
:100DB80000BF00BF00BF00BF00BF00BF00BF00BF33
:100DC80000BF00BF00BF00BF00BF00BF00BF00BF23
:100DD80000BF00BF00BF00BF00BF00BF00BF00BF13
:100DE80000BF00BF00BF00BF00BF00BF00BF00BF03
:100DF80000BF00BF00BF00BF00BF00BF00BF00BFF3
:100E0800049B5B0804939DF805300133DBB21F2B6C
:100E18008DF805307ED8E3791068C3EBC30300EB87
:100E28008307BF8850F823301F830398049B184218
:100E38007FF476AF004600BF00BF00BF00BF00BF11
:100E480000BF00BF00BF00BF00BF00BF00BF00BFA2
:100E580000BF00BF00BF00BF00BF00BFE37910683C
:100E6800C3EBC30300EB8307BF8850F823305F83CD
:100E7800004600BF00BF00BF00BF00BF00BF00BFEB
:100E880000BF00BF00BF00BF00BF00BF00BF00BF62
:100E980000BF00BF00BF00BF00BF00BF00BF00BF52
:100EA80000BF00BF00BF00BF00BF00BF00BF00BF42
:100EB80000BF00BF00BF00BF00BF00BF00BF00BF32
:100EC80000BF00BF00BF00BF00BF00BF00BF00BF22
:100ED80000BF00BF00BF00BF00BF00BF00BF00BF12
:100EE80000BF00BF00BF00BF00BF00BF00BF00BF02
:100EF80000BF00BF00BF00BF00BF00BF00BF00BFF2
:100F080000BF00BF00BF00BF00BF00BF00BF00BFE1
:100F180000BF75E78E46CAE67047032900F02E81A8
:100F28001E4A4FF400050026BDF80A309BB2002B7C
:100F38003FF42EAE0495BDF80A30E079033B9BB22E
:100F4800ADF80A309EF800300EF10301DBB28DF8DF
:100F580007309EF80130C0EBC000DBB28DF80830D6
:100F68009EF80230D2F800E0DBB28DF806309DF82A
:100F780007709DF808300EEB800C1B0243EA07430C
:100F88009DF80670BCF804C05EF820003B4303934C
:100F98008DF80560A0F81AC07DE000BF8803002026
:100FA800049B5B080493004600BF00BF00BF00BF5E
:100FB80000BF00BF00BF00BF00BF00BF00BF00BF31
:100FC80000BF00BF00BF00BF00BF00BF00BF00BF21
:100FD80000BF00BF00BF00BF00BF00BF00BF00BF11
:100FE80000BF00BF00BF00BF00BF00BF00BF00BF01
:100FF80000BF00BF00BF00BF00BF00BF00BF00BFF1
:1010080000BF00BF00BF00BF00BF00BF00BF00BFE0
:1010180000BF00BF00BF00BF00BF00BF00BF00BFD0
:1010280000BF00BF00BF00BF00BF00BFE079176866
:101038009DF80530C0EBC00007EB800EBEF804E059
:1010480057F820000133DBB28DF80530A0F818E01E
:10105800004600BF00BF00BF00BF00BF00BF00BF09
:1010680000BF00BF00BF00BF00BF00BF00BF00BF80
:1010780000BF00BF00BF00BF00BF9DF80530182BA0
:101088007AD0E3791068C3EBC30300EB8307BF880A
:1010980050F823305F830398049B184280D10046A0
:1010A80000BF00BF00BF00BF00BF00BF00BF00BF40
:1010B80000BF00BF00BF00BF00BF00BF00BF00BF30
:1010C800E3791068C3EBC30300EB8307BF8850F8CC
:1010D80023301F839DF805300133DBB28DF80530CE
:1010E800049B5B080493004600BF00BF00BF00BF1D
:1010F80000BF00BF00BF00BF00BF00BF00BF00BFF0
:1011080000BF00BF00BF00BF00BF00BF00BF00BFDF
:1011180000BF00BF00BF00BF00BF00BF00BF00BFCF
:1011280000BF00BF00BF00BF00BF00BF00BF00BFBF
:1011380000BF00BF00BF00BF00BF00BF00BF00BFAF
:1011480000BF00BF00BF00BF00BF00BF00BF00BF9F
:1011580000BF00BF00BF00BF00BF00BF00BF00BF8F
:1011680000BF00BF00BF00BF00BF00BF00BF00BF7F
:101178009DF80530182B84D18E46D5E6174A4FF4D2
:1011880000050026BDF80A309BB2002B3FF400ADE5
:101198000495BDF80A300EF10301033B9BB2ADF88C
:1011A8000A309EF80030DBB28DF807309EF8013027
:1011B800DBB28DF806309EF80230DBB28DF80830CD
:1011C8009DF807709DF806309DF808001B0243EA59
:1011D8000743034303938DF80560E0E0880300208C
:1011E800004600BF00BF00BF00BF00BF00BF00BF78
:1011F80000BF00BF00BF00BF00BF00BF00BF00BFEF
:1012080000BF00BF00BF00BF00BF00BF00BF00BFDE
:1012180000BF00BF00BF00BF00BF00BF00BF00BFCE
:1012280000BF00BF00BF00BF00BF00BF00BF00BFBE
:1012380000BF00BF00BF00BF00BF00BF00BF00BFAE
:1012480000BF00BF00BF00BF00BF00BF00BF00BF9E
:1012580000BF00BF00BF00BF00BF00BF00BF00BF8E
:1012680000BF00BF00BF00BF00BF00BF00BF00BF7E
:1012780000BF00BF00BF00BF00BF00BF00BF00BF6E
:1012880000BF00BF00BF00BF00BF00BF00BF00BF5E
:1012980000BF00BF00BF00BF00BF00BF00BF00BF4E
:1012A80000BF00BF00BF00BF00BF00BF00BF00BF3E
:1012B80000BF00BF00BF00BF00BF00BF00BF00BF2E
:1012C80000BF00BF00BF00BF00BF00BF00BF00BF1E
:1012D80000BF00BF00BF00BF00BF00BF00BF00BF0E
:1012E80000BF00BF00BF00BF00BF00BF00BF00BFFE
:1012F80000BF00BF00BF00BF00BF00BF00BF00BFEE
:1013080000BFE3791068C3EBC30300EB8307BF8812
:1013180050F823305F83004600BF00BF00BF00BF06
:1013280000BF00BF00BF00BF00BF00BF00BF00BFBD
:1013380000BF00BF00BF00BF00BF00BF00BF00BFAD
:1013480000BF00BF00BF00BF00BF00BF00BF00BF9D
:1013580000BF00BF00BF00BF00BF00BF00BF00BF8D
:1013680000BF00BF00BF00BF00BF00BF00BF00BF7D
:1013780000BF00BF00BF00BF00BF00BF00BF00BF6D
:1013880000BF00BF00BF049B5B0804939DF80530B5
:101398000133DBB2172B8DF8053000F2E380E379D7
:1013A8001068C3EBC30300EB8307BF8850F82330F2
:1013B8001F830398049B18427FF412AF004600BFB6
:1013C80000BF00BF00BF00BF00BF00BF00BF00BF1D
:1013D80000BF00BF00BF00BF00BF00BF00BF00BF0D
:1013E80000BF00BF00BF00BF00BF00BF00BF00BFFD
:1013F80000BF00BF00BF00BF00BF00BF00BF00BFED
:1014080000BF00BF00BF00BF00BF00BF00BF00BFDC
:1014180000BF00BF00BF00BF00BF00BF00BF00BFCC
:1014280000BF00BF00BF00BF00BF00BF00BF00BFBC
:1014380000BF00BF00BF00BF00BF00BF00BFE3790F
:101448001068C3EBC30300EB8307BF8850F8233051
:101458005F83004600BF00BF00BF00BF00BF00BFE2
:1014680000BF00BF00BF00BF00BF00BF00BF00BF7C
:1014780000BF00BF00BF00BF00BF00BF00BF00BF6C
:1014880000BF00BF00BF00BF00BF00BF00BF00BF5C
:1014980000BF00BF00BF00BF00BF00BF00BF00BF4C
:1014A80000BF00BF00BF00BF00BF00BF00BF00BF3C
:1014B80000BF00BF00BF00BF00BF00BF00BF00BF2C
:1014C80000BF00BF00BF00BF00BF00BF00BF00BF1C
:1014D80000BF00BF00BF00BF00BF00BF00BF00BF0C
:1014E80000BF00BF00BF00BF00BF00BF00BF00BFFC
:1014F80000BF00BF00BF00BF00BF00BF00BF00BFEC
:1015080000BF00BF00BF00BF00BF00BF00BF00BFDB
:1015180000BF00BF00BF00BF00BF00BF00BF00BFCB
:1015280000BF00BF00BF00BF00BF00BF00BF00BFBB
:1015380000BF00BF00BF00BF00BF00BF00BF00BFAB
:1015480000BF00BF00BF00BF00BF00BF00BF00BF9B
:1015580000BF00BF00BF00BF00BF00BF00BF00BF8B
:1015680000BF10E78E460DE64388F0B58B4245D99B
:10157800057AC2F30743C2F30724D6B245B16B43D9
:101588006C436E43C3F30723C4F30724C6F307264B
:1015980090F806C0C768BCF1060F0CBF04250325E8
:1015A8006943BCF1080F07EB010524D84FF0010E81
:1015B8000EFA0CFE1EF4D27F0CD11EF0400F0DD196
:1015C8001EF0100F17D0FF2B08BFFE237B546E7040
:1015D800AC70F0BD7C546B70AE70F0BD7B546C7019
:1015E800AE70037A120E0BB9D2B202E05A43C2F3BC
:1015F8000722EA70F0BD7B546C70AE70F0BD42EA11
:10160800012242EA0040704708B500F02FF800F0C8
:101618002DF8014B186008BD8803002008B5024B5F
:101628001B681B6B019308BDD001060808B5024B67
:101638001B68DB6E019308BDB801060808B5024BAC
:101648001B685B68019308BD9C01060808B5024B3E
:101658001B681B69019308BD9C01060808B5024B6D
:101668001B685B69019308BD9C01060808B5024B1D
:101678001B681B68019308BDB001060808B5024B3A
:101688001B689B68019308BDB001060808B5024BAA
:101698001B68DB68019308BDB001060808B5024B5A
:1016A8001B681B69019308BDB001060808B5024B09
:1016B8001B681B6E019308BDAC01060808B5024BF8
:1016C8001B685B6E019308BDAC01060808B5024BA8
:1016D8001B689B6E019308BDAC01060808B5024B58
:1016E8001B68DB6E019308BDAC01060808B5024B08
:1016F8001B681B6F019308BDAC01060808B5024BB7
:101708001B685B6F019308BDAC01060808B5034B65
:101718001B68D3F88030019308BD0000AC010608AF
:1017280008B5024B1B68DB69019308BDB4010608C4
:1017380008B5024B1B681B6A019308BDB401060873
:1017480008B5024B1B689B69019308BDC4010608D4
:1017580008B5024B1B685B6A019308BDC401060803
:1017680008B5024B1B689B6A019308BDC4010608B3
:1017780008B5024B1B68DB6A019308BDC401060863
:1017880008B5024B1B681B6B019308BDC401060812
:1017980008B5024B1B685B6B019308BDC4010608C2
:1017A80008B5024B1B689B6B019308BDC401060872
:1017B80008B5024B1B681B6C019308BDC4010608E1
:1017C80008B5024B1B681B68019308BDD8010608C1
:1017D80008B5024B1B681B69019308BDD8010608B0
:1017E80008B5024B1B685B69019308BDD801060860
:1017F80008B5024B1B689B69019308BDD801060810
:1018080008B5024B1B68DB69019308BDD8010608BF
:1018180008B5024B1B681B6A019308BDD80106086E
:1018280008B5024B1B685B68019308BDA401060854
:1018380008B5024B1B685B69019308BDA401060843
:1018480008B5034B1B68D3F89030019308BD00001E
:10185800A401060808B5034B1B68D3F89C30019314
:1018680008BD0000A401060808B5024B1B68DB6B25
:10187800019308BDCC01060808B5024B1B681B691B
:10188800019308BDC801060808B5024B1B681B6810
:10189800019308BDA001060808B5024B1B685B68E8
:1018A800019308BDA00106080021FFF7C1BF10B5CC
:1018B8008368044613B1032201469847204610BDA9
:1018C8007047F8B5064615460C468F18BC4206D038
:1018D800336814F8011B9B6830469847F6E728469A
:1018E800F8BD0022007CFFF7E1BE0021007CFFF775
:1018F800E5BE0021007CFFF7E9BE0021007CFFF770
:10190800EDBE0021007CFFF7F1BE10B50446FEF7DE
:10191800C0FB204610BD000010B5044608464FF431
:101928007A73A360044B0021207461602360FFF781
:10193800EDFE204610BD00BF102C0A080021007CD7
:10194800FFF7DCBE704710B50446FEF7A2FB204641
:1019580010BDF8B50F4600F10806051D002416F85D
:10196800011D0A22384600F082F8AE42044407D02E
:10197800002CF4D02E21384600F04CF80444EEE751
:101988002046F8BD10B59DF8084044EA032343EA11
:10199800024242EA016104234160037510BD000060
:1019A80037B5044D05609DF818500095FFF7EAFF1C
:1019B80003B030BD382C0A08014A024B1A60704740
:1019C800FF2C0A088C030020F8B506460D468F1830
:1019D8000024BD420CD0336815F8011B9B683046C3
:1019E8009847002801DB0444F3E7002C08BF0446AD
:1019F8002046F8BD70B505460C46084649B101F0C9
:101A0800E3F82B68024621462846BDE87040DB68AB
:101A1800184770BD03689B681847012A98BF0A22B7
:101A280030B50B468BB000218DF824100DF123043E
:101A3800B3FBF2F505FB1233DBB2092B94BF30334D
:101A48003733DBB2214604F801392B46002DEFD19C
:101A5800FFF7D0FF0BB030BD10B422B90368C9B28C
:101A68009B6810BC1847D2B210BCFFF7D6BFFFF76F
:101A7800F3BF10B50446FFF71AFF204610BD00005B
:101A8800034800238360034A034900F0CBBA00BF30
:101A980090030020680300207B1A0A08704710B5DD
:101AA8000446FEF7F6FA204610BD000070B504465D
:101AB8000E46074B0025036040F80C5FFFF7AEFDAC
:101AC80030462671FFF72CFEA560204670BD00BF8A
:101AD800302D0A080079FFF72BBE00004FF69C73E3
:101AE80037B50D4C002563804FF6FF732846A38059
:101AF8002570FFF795FE02A840F8045D2A4629469E
:101B0800FFF794FD019B1E2B04D10323237011239F
:101B18006580A38003B030BDA0030020024B1A6883
:101B2800024B1A60704700BF00030020A803002082
:101B3800704741747047007CFFF73ABE007CFFF79E
:101B48000FBE007CFFF71CBE007CFFF711BE007CB7
:101B5800FFF71EBE10B50446FEF79BFA204610BDDF
:101B680070B5457C04460E4625B9007CFFF720FE7B
:101B7800002805DD3146207CBDE87040FFF7E8BD50
:101B8800284670BD10B5044608461146002262601A
:101B98004FF47A72A260054A2074226001226274AE
:101BA8001A46FFF7CDFD204610BD00BF6C2D0A0870
:101BB800007CFFF7F5BD000038B50C4D296811F021
:101BC800010411D12846FEF766FA68B1084A214691
:101BD800084B0948FFF7D6FF2846FEF761FA074A7F
:101BE8000749054800F01EFA034838BD44040020A0
:101BF80048040020C0030020AC0300206803002034
:101C0800391B0A084174704770470021007CFFF7B0
:101C1800EFBD0121007CFFF7EBBD007CFFF7E0BDC5
:101C2800007CFFF7D5BD38B50446007C0D46FFF7AC
:101C3800D7FD002801DC607C20B12946207CFFF715
:101C4800DFFD012038BD007CFFF7E2BD10B504467A
:101C5800FEF71FFA204610BD10B504460023636046
:101C68004FF47A73A360054B08462360012321745F
:101C780063741146FFF7A4FD204610BD9C2D0A0889
:101C880010B504461422002100F06DFF054B2046D4
:101C98006360054BE36040F20113238181232382B3
:101CA80010BD00BF51050020D004002030B50E4DF6
:101CB80087B001A8FFF7E4FF296811F0010410D1EB
:101CC8002846FEF7E8F960B101AA21460748FFF760
:101CD800C3FF2846FEF7E4F9054A0649034800F021
:101CE800A1F9024807B030BDCC04002054060020FA
:101CF80068030020111C0A0810B5044614220021AC
:101D080000F031FF054B20466360054BE36040F26D
:101D1800011323818123238210BD00BF0407002003
:101D28006C06002010B50E4C86B001A8FFF7E4FF42
:101D38002368DB0710D42046FEF7ADF960B101AA8D
:101D480001210848FFF788FF2046FEF7A9F9064A4F
:101D58000649044800F066F9024806B010BD00BF05
:101D680068060020F006002068030020111C0A08FD
:101D78007047002211461046FFF77EBD0348044B0A
:101D8800044A0549036000F04DB900BF0808002067
:101D9800CC2D0A0868030020791D0A0808B5144BE1
:101DA80033B1FFF783FF03681B699847002816DCE7
:101DB800104B33B1FFF700FF03681B6998470028F1
:101DC80010DC0D4B0BB1AFF300800C4B7BB1FFF770
:101DD800A9FF03681B699847002806DC08BDAFF314
:101DE8000080E5E7AFF30080EBE7AFF3008008BDC4
:101DF80000000000000000000000000000000000DB
:101E080008B5FFF7CBFFFFF729FC014B186008BDA9
:101E1800140800200248034A0349121A00F098BE29
:101E28000040024004400240702E0A0807B5002313
:101E380000931A466FF07701FFF70CFD03B05DF8C9
:101E480004FB000007B543880A2B08D0502B09D1A2
:101E5800094B1B683BB103B05DF804EB1847FFF76B
:101E6800E5FF06E0002300931A466FF07701FFF7BD
:101E7800F1FC03B05DF804FB0C08002038B5104CE9
:101E8800104D2368AB42104B0CBF012200221A7080
:101E980002D0FFF7BFFF2560FFF7D0FB00F06CFE14
:101EA8000A4B1BB1FFF7CAFBAFF3008000210748BC
:101EB800FFF7DAFCBDE8384000210548FFF7C0BC51
:101EC800004002401E1C279A100800200000000055
:101ED8004D1E0A0810B504460F48FFF7FBFD28B150
:101EE800A4F10D03022B01D8002010BD00F040F82A
:101EF800FFF724FD08B1012CF6D9FFF75DFEFFF7C7
:101F080057FE18B1A4F11203012BEDD9172C8CBF81
:101F18000020012010BD00BF48080020172838B550
:101F280004460D460AD8FF2908D0FFF7D3FF28B189
:101F380029462046BDE83840FFF7A0BB38BD38B574
:101F480004460D46FFF7A2FBFF2810D0062804D848
:101F58004D2323FA00F0C30709D42046FFF7BAFF40
:101F680028B129462046BDE83840FFF797BB38BD61
:101F780038B50B4D296811F001040FD12846FEF73A
:101F88008AF858B121460748FFF7C6FC2846FEF7ED
:101F980087F8054A0549034800F044F8014838BD68
:101FA800180800201C08002068030020C9180A0827
:101FB80013B5084C00231A46194600932046FFF72C
:101FC800EFFC2046044A054902B0BDE8104000F085
:101FD80029B800BF30080020680300204D190A08FE
:101FE80070B50C4C0C4E0D4D00212046FFF75EFDE0
:101FF80020460B4C3246294600F014F801212046B1
:10200800FFF754FD324629462046BDE8704000F0EF
:1020180009B800BF4808002068030020A51A0A086C
:10202800580800200B460146184600F083BD000002
:10203800244B1A68D0075CBF01221A60224B1A6829
:10204800D1075CBF01221A60204B1A68D2075CBF17
:1020580001221A601E4B1A68D0075CBF01221A6061
:102068001C4B1A68D1075CBF01221A601A4B1A6808
:10207800D2075CBF01221A60184B1A68D0075CBFF0
:1020880001221A60164B1A68D1075CBF01221A6038
:10209800144B1A68D2075CBF01221A60124B1A68E7
:1020A800D0075CBF01221A60104B1A68D1075CBFC9
:1020B80001221A600E4B1A68D2075CBF01221A600F
:1020C800704700BF94080020900800208C0800206A
:1020D8008808002084080020800800207C08002050
:1020E8007808002074080020700800206C08002080
:1020F80068080020184B1A68D1075CBF01221A60D3
:10210800164B1A68D2075CBF01221A60144B1A6872
:10211800D0075CBF01221A60124B1A68D1075CBF56
:1021280001221A60104B1A68D2075CBF01221A609C
:102138000E4B1A68D0075CBF01221A600C4B1A6854
:10214800D1075CBF01221A600A4B1A68D2075CBF2C
:1021580001221A60704700BFB4080020B0080020B0
:10216800AC080020A8080020A4080020A00800202F
:102178009C08002098080020184B1A68D1075CBFFB
:1021880001221A60164B1A68D2075CBF01221A6036
:10219800144B1A68D0075CBF01221A60124B1A68E8
:1021A800D1075CBF01221A60104B1A68D2075CBFC6
:1021B80001221A600E4B1A68D0075CBF01221A6010
:1021C8000C4B1A68D1075CBF01221A600A4B1A68C7
:1021D800D2075CBF01221A60704700BFD4080020F4
:1021E800D0080020CC080020C8080020C40800201F
:1021F800C0080020BC080020B8080020244B1A683A
:10220800D0075CBF01221A60224B1A68D1075CBF55
:1022180001221A60204B1A68D2075CBF01221A609B
:102228001E4B1A68D0075CBF01221A601C4B1A6843
:10223800D1075CBF01221A601A4B1A68D2075CBF2B
:1022480001221A60184B1A68D0075CBF01221A6075
:10225800164B1A68D1075CBF01221A60144B1A6822
:10226800D2075CBF01221A60124B1A68D0075CBF04
:1022780001221A60104B1A68D1075CBF01221A604C
:102288000E4B1A68D2075CBF01221A60704700BF64
:102298000409002000090020FC080020F80800209C
:1022A800F4080020F0080020EC080020E8080020CE
:1022B800E4080020E0080020DC080020D8080020FE
:1022C80081F0004102E000BF83F0004330B54FEADF
:1022D80041044FEA430594EA050F08BF90EA020F4C
:1022E8001FBF54EA000C55EA020C7FEA645C7FEADF
:1022F800655C00F0E2804FEA5454D4EB5555B8BF02
:102308006D420CDD2C4480EA020281EA030382EA72
:10231800000083EA010180EA020281EA0303362D04
:1023280088BF30BD11F0004F4FEA01314FF4801CD7
:102338004CEA113102D0404261EB410113F0004FE9
:102348004FEA03334CEA133302D0524263EB4303A0
:1023580094EA050F00F0A780A4F10104D5F1200E3E
:102368000DDB02FA0EFC22FA05F2801841F1000199
:1023780003FA0EF2801843FA05F359410EE0A5F16D
:1023880020050EF1200E012A03FA0EFC28BF4CF09E
:10239800020C43FA05F3C01851EBE37101F0004554
:1023A80007D54FF0000EDCF1000C7EEB00006EEB61
:1023B8000101B1F5801F1BD3B1F5001F0CD34908EB
:1023C8005FEA30004FEA3C0C04F101044FEA445242
:1023D80012F5800F80F09A80BCF1004F08BF5FEAC9
:1023E800500C50F1000041EB045141EA050130BDA9
:1023F8005FEA4C0C404141EB010111F4801FA4F14C
:102408000104E9D191F0000F04BF01460020B1FAA0
:1024180081F308BF2033A3F10B03B3F120020CDAD8
:102428000C3208DD02F1140CC2F10C0201FA0CF0B6
:1024380021FA02F10CE002F11402D8BFC2F1200C1B
:1024480001FA02F120FA0CFCDCBF41EA0C019040D1
:10245800E41AA2BF01EB0451294330BD6FEA04041A
:102468001F3C1CDA0C340EDC04F11404C4F1200205
:1024780020FA04F001FA02F340EA030021FA04F317
:1024880045EA030130BDC4F10C04C4F1200220FA6E
:1024980002F001FA04F340EA0300294630BD21FAAC
:1024A80004F0294630BD94F0000F83F4801306BF72
:1024B80081F480110134013D4EE77FEA645C18BF66
:1024C8007FEA655C29D094EA050F08BF90EA020FFD
:1024D80005D054EA000C04BF1946104630BD91EAF5
:1024E800030F1EBF0021002030BD5FEA545C05D1F8
:1024F8004000494128BF41F0004130BD14F5800437
:102508003CBF01F5801130BD01F0004545F0FE41AA
:1025180041F470014FF0000030BD7FEA645C1ABFDF
:10252800194610467FEA655C1CBF0B46024650EA16
:10253800013406BF52EA033591EA030F41F4002142
:1025480030BD00BF90F0000F04BF0021704730B5C8
:102558004FF4806404F132044FF000054FF000019D
:1025680050E700BF90F0000F04BF0021704730B55E
:102578004FF4806404F1320410F0004548BF404233
:102588004FF000013EE700BF42004FEAE2014FEA88
:1025980031014FEA02701FBF12F07F4393F07F4F63
:1025A80081F06051704792F0000F14BF93F07F4F95
:1025B800704730B54FF4607401F0004521F00041D8
:1025C80020E700BF50EA010208BF704730B54FF05E
:1025D80000050AE050EA010208BF704730B511F063
:1025E800004502D5404261EB41014FF4806404F19B
:1025F80032045FEA915C3FF4DCAE4FF003025FEA1D
:10260800DC0C18BF03325FEADC0C18BF033202EBA4
:10261800DC02C2F1200300FA03FC20FA02F001FAFE
:1026280003FE40EA0E0021FA02F11444C1E600BF9D
:1026380070B54FF0FF0C4CF4E06C1CEA11541DBF50
:102648001CEA135594EA0C0F95EA0C0F00F0DEF81B
:102658002C4481EA030621EA4C5123EA4C5350EA00
:10266800013518BF52EA033541F4801143F4801351
:1026780038D0A0FB02CE4FF00005E1FB02E506F0E2
:102688000042E0FB03E54FF00006E1FB03569CF037
:10269800000F18BF4EF0010EA4F1FF04B6F5007F3D
:1026A80064F5407404D25FEA4E0E6D4146EB0606AF
:1026B80042EAC62141EA55514FEAC52040EA5E5038
:1026C8004FEACE2EB4F1FD0C88BFBCF5E06F1ED8E2
:1026D800BEF1004F08BF5FEA500E50F1000041EB19
:1026E800045170BD06F0004646EA010140EA0200C6
:1026F80081EA0301B4EB5C04C2BFD4EB0C0541EAE8
:10270800045170BD41F480114FF0000E013C00F3FC
:10271800AB8014F1360FDEBF002001F0004170BD20
:10272800C4F10004203C35DA0C341BDC04F1140439
:10273800C4F1200500FA05F320FA04F001FA05F2C5
:1027480040EA020001F0004221F0004110EBD37092
:1027580021FA04F642EB06015EEA430E08BF20EABE
:10276800D37070BDC4F10C04C4F1200500FA04F361
:1027780020FA05F001FA04F240EA020001F00041F3
:1027880010EBD37041F100015EEA430E08BF20EA66
:10279800D37070BDC4F1200500FA05F24EEA020EAE
:1027A80020FA04F301FA05F243EA020321FA04F0DD
:1027B80001F0004121FA04F220EA020000EBD37094
:1027C8005EEA430E08BF20EAD37070BD94F0000F94
:1027D8000FD101F00046400041EB010111F4801FC8
:1027E80008BF013CF7D041EA060195F0000F18BF79
:1027F800704703F00046520043EB030313F4801FB5
:1028080008BF013DF7D043EA0603704794EA0C0F6E
:102818000CEA135518BF95EA0C0F0CD050EA410684
:1028280018BF52EA4306D1D181EA030101F0004101
:102838004FF0000070BD50EA410606BF1046194629
:1028480052EA430619D094EA0C0F02D150EA013635
:1028580013D195EA0C0F05D152EA03361CBF104676
:1028680019460AD181EA030101F0004141F0FE4115
:1028780041F470014FF0000070BD41F0FE4141F499
:10288800780170BD70B54FF0FF0C4CF4E06C1CEA99
:1028980011541DBF1CEA135594EA0C0F95EA0C0F4E
:1028A80000F0A7F8A4EB050481EA030E52EA033509
:1028B8004FEA013100F088804FEA03334FF080552A
:1028C80045EA131343EA12634FEA022245EA111557
:1028D80045EA10654FEA00260EF000419D4208BF08
:1028E800964244F1FD0404F5407402D25B084FEAB5
:1028F8003202B61A65EB03055B084FEA32024FF461
:1029080080104FF4002CB6EB020E75EB030E22BFBD
:10291800B61A754640EA0C005B084FEA3202B6EB7D
:10292800020E75EB030E22BFB61A754640EA5C002C
:102938005B084FEA3202B6EB020E75EB030E22BFBC
:10294800B61A754640EA9C005B084FEA3202B6EBBD
:10295800020E75EB030E22BFB61A754640EADC007C
:1029680055EA060E18D04FEA051545EA16754FEADE
:1029780006164FEAC30343EA52734FEAC2025FEAFC
:102988001C1CC0D111F4801F0BD141EA00014FF08B
:1029980000004FF0004CB6E711F4801F04BF01435C
:1029A8000020B4F1FD0C88BFBCF5E06F3FF6AFAE78
:1029B800B5EB030C04BFB6EB020C5FEA500C50F108
:1029C800000041EB045170BD0EF0004E4EEA11318B
:1029D80014EB5C04C2BFD4EB0C0541EA045170BD92
:1029E80041F480114FF0000E013C90E645EA060ED6
:1029F8008DE60CEA135594EA0C0F08BF95EA0C0F04
:102A08003FF43BAF94EA0C0F0AD150EA01347FF44B
:102A180034AF95EA0C0F7FF425AF104619462CE722
:102A280095EA0C0F06D152EA03353FF4FDAE104685
:102A3800194622E750EA410618BF52EA43067FF4D6
:102A4800C5AE50EA41047FF40DAF52EA43057FF466
:102A5800EBAE12E74FEA4102B2F1E04324BFB3F50F
:102A6800001CDCF1FE5C0DD901F0004C4FEAC002FD
:102A78004CEA5070B2F1004F40EB830008BF20F0E1
:102A88000100704711F0804F21D113F13872BCBF9B
:102A980001F00040704741F480114FEA5252C2F1F0
:102AA8001802C2F1200C10FA0CF320FA02F018BF39
:102AB80040F001004FEAC1234FEAD32303FA0CFC8C
:102AC80040EA0C0023FA02F34FEA4303CCE77FEA1B
:102AD800625307D150EA01331EBF4FF0FE4040F465
:102AE8004000704701F0004040F0FE4040F4000014
:102AF800704700BF42000ED2B2F1FE4F0BD34FF029
:102B08009E03B3EB126209D44FEA002343F000435B
:102B180023FA02F070474FF00000704712F1610F7E
:102B280001D1420202D14FF0FF3070474FF0000050
:102B3800704700BF10B5054C13462CB10A46014634
:102B48000220AFF3008010BD204610BD0000000039
:102B580010B5431E0A44914204D011F8014B03F802
:102B6800014FF8E710BD03460244934202D003F830
:102B7800011BFAE77047000038B5124B05461C6880
:102B8800A36BD3B91820FEF77FFE43F20E33A06380
:102B980003804AF6CD33438041F2342383804EF2DA
:102BA8006D63C3804DF6EC630381052343810B23DA
:102BB800838101220023C0E90423A36B00221D6145
:102BC8005A6138BD64030020034613F8012B002A1C
:102BD800FBD1181A013870471D000A085D000A0861
:102BE80089000A088D000A08000000002C01000076
:102BF80018000000F40100002C0100005000000043
:102C08000000000000000000C9180A0813190A088B
:102C1800EB180A08CB180A08F3180A08FB180A0860
:102C280003190A080B190A08000000000000000038
:102C38005B190A084D190A084F190A0866006C6ED4
:102C480000666E00636F64650064657461696C009A
:102C58000D0A00253031307520005D200025640004
:102C68002C200028293A2000205B00636F6465202F
:102C78003D200025690064657461696C73203D20FE
:102C880000626175640053657269616C0055534256
:102C980053657269616C3100747970650070617296
:102CA800616D00636D6400696400686E640073742C
:102CB800726D0066696C74006C766C0061646448BF
:102CC800616E646C65720072656D6F766548616EE1
:102CD800646C657200656E756D48616E646C6572D2
:102CE80073004A534F4E53747265616D4C6F674859
:102CF800616E646C657200617070006E6F6E650065
:102D0800747261636500696E666F007761726E0048
:102D18006572726F720070616E696300616C6C003D
:102D28000000000000000000A51A0A08A71A0A08F7
:102D38005A00252B3033643A253032750025592D39
:102D4800256D2D25645425483A254D3A2553257A75
:102D58000061736374696D65000000000000000085
:102D680000000000391B0A085D1B0A08691B0A08D5
:102D7800D1190A08451B0A08511B0A084B1B0A08E7
:102D8800571B0A083B1B0A083F1B0A0800000000E3
:102D980000000000111C0A08551C0A082F1C0A080C
:102DA800D1190A08291C0A08131C0A081B1C0A083E
:102DB8004F1C0A08231C0A080D1C0A080000000002
:102DC800000000007B1D0A08000000000000000051
:102DD80000000000000000000000000000000000EB
:102DE80000000000000000000000000000000000DB
:102DF80000000000000000000000000000000000CB
:102E080000000000000000000000000000000000BA
:102E180000000000000000000000000000000000AA
:102E2800000000000000000043000000D1020A0872
:102E380011160A08C1190A08891A0A08E51A0A089F
:102E4800251B0A08851D0A08B91F0A08E91F0A0870
:102E580039200A08FD200A0881210A0805220A08E3
:082E6800000000000000000062
:042E7000000000005E
:102E7400592D0A0800000000D02D0A08F02D0A0878
:102E8400102E0A08000000000000000000000000EE
:102E940000000000302E0A080000000000000000BE
:102EA400000000000000000000000000000000001E
:102EB400000000000000000000000000000000000E
:102EC40000000000000000000000000000000000FE
:082ED4000000000004030020CF
:102EDC00FFFFFFFF00000102030405060708090AB3
:102EEC000B0C0D0E0F101112131415161718191AAE
:082EFC001B1C1D1E1F202800F5
:042F040078563412B5
:04000005080A0018CD
:00000001FF
