:02000004080AE8
:1000000000000A08941E0A08000006000600050108
:08001000040279050000000064
:0400180064190A0855
:10001C0009480A4908B5884205D0094A824202D0EB
:10002C00121A01F095F80748074A0021121A01F03C
:10003C009AF8064808BD00BF00000020B41D0A084D
:10004C00B8000020B80000208C0600208C06002090
:10005C0070B500F0C1FD074B074C1E46E41AA4080E
:10006C000025A54204D056F8253098470135F8E70D
:10007C0070BD00BF741D0A08A81D0A0800F011B855
:10008C0008B500F00FF8BDE8084000F067BD00F0BF
:10009C0083B90078B0FA80F04009704701230370EF
:1000AC007047704738B500F067FB094D094C2B6859
:1000BC00984204DD0123237000F05EFB2860237856
:1000CC0023B1BDE83840044800F07EB938BD00BF0C
:1000DC00C0000020BC00002080EE360008B500F007
:1000EC002FF800F049FB014B186008BDC000002040
:1000FC0008B5024B1B681B6B019308BDD0010608A9
:10010C0008B5024B1B685B68019308BD9C0106088F
:10011C0008B5024B1B685B69019308BD9C0106087E
:10012C0008B5024B1B68DB69019308BD9C010608EE
:10013C0008B5024B1B689B6D019308BD9C0106081A
:10014C0008B5024B1B681B68019308BDB00106087B
:10015C0008B5024B1B68DB69019308BDB4010608A6
:10016C0008B5024B1B689B69019308BDC4010608C6
:10017C0008B5024B1B685B6A019308BDC4010608F5
:10018C0008B5024B1B689B6A019308BDC4010608A5
:10019C0008B5024B1B68DB6A019308BDC401060855
:1001AC0008B5024B1B681B6B019308BDC401060804
:1001BC0008B5024B1B685B6B019308BDC4010608B4
:1001CC0008B5024B1B681B6C019308BDC4010608E3
:1001DC0008B5024B1B681B68019308BDD8010608C3
:1001EC0008B5024B1B681B69019308BDD8010608B2
:1001FC0008B5024B1B685B69019308BDD801060862
:10020C0008B5024B1B689B69019308BDD801060811
:10021C0008B5024B1B68DB69019308BDD8010608C1
:10022C0008B5024B1B681B6A019308BDD801060870
:10023C0008B5024B1B689B6C019308BDC0010608F6
:10024C0008B5024B1B681B68019308BDA401060886
:10025C0008B5024B1B685B68019308BDA401060836
:10026C0008B5024B1B685B69019308BDA401060825
:10027C0008B5024B1B689B6D019308BDA4010608D1
:10028C0008B5034B1B68D3F89030019308BD0000F0
:10029C00A401060808B5034B1B68D3F89C300193E6
:1002AC0008BD0000A401060808B5024B1B689B683A
:1002BC00019308BDCC01060808B5024B1B685B69AD
:1002CC00019308BDCC01060808B5024B1B681B6BDB
:1002DC00019308BDCC01060808B5024B1B68DB6B0B
:1002EC00019308BDCC01060808B5024B1B685B687E
:1002FC00019308BDC801060808B5024B1B689B6832
:10030C00019308BDC801060808B5024B1B68DB68E1
:10031C00019308BDC801060808B5024B1B681B6990
:10032C00019308BDC801060808B5024B1B685B6940
:10033C00019308BDC801060808B5024B1B689B69F0
:10034C00019308BDC801060808B5024B1B68DB69A0
:10035C00019308BDC801060808B5024B1B681B6A4F
:10036C00019308BDC801060808B5024B1B681B6B3E
:10037C00019308BDC801060808B5024B1B685B6BEE
:10038C00019308BDC801060808B5024B1B681B6821
:10039C00019308BDA001060808B5024B1B685B68F9
:1003AC00019308BDA001060808B5024B1B689B69A8
:1003BC00019308BDA001060808B5024B1B681B6B16
:1003CC00019308BDA00106080021FFF749BF10B535
:1003DC008368044613B1032201469847204610BD9A
:1003EC00704710B50446182100F061FC204610BD82
:1003FC00F8B50F4600F10806051D002416F8011D7E
:10040C000A22384600F011F9AE42044407D0002C01
:10041C00F4D02E21384600F0DBF80444EEE72046F9
:10042C00F8BD000010B50446044B112240F8043B03
:10043C00002100F098FE204610BD00BF80190A086C
:10044C000346074A10B543F8042B01F1100251F88A
:10045C00044B914243F8044BF9D10A781A7010BD41
:10046C0080190A08024A4160026004220275704732
:10047C0080190A0810B59DF8084044EA032343EAA2
:10048C00024242EA016104234160037510BD000081
:10049C0037B5044D05609DF818500095FFF7EAFF3D
:1004AC0003B030BD80190A08014A024B1A6070472C
:1004BC00021A0A08C400002000231A464068FFF7FD
:1004CC0013BF002202214068FFF71EBF0022114615
:1004DC004068FFF711BF002211464068FFF71CBFB0
:1004EC0000231A4619464068FFF71EBF00231A4620
:1004FC0019464068FFF720BF002281F001014068D7
:10050C00FFF722BF00224068FFF72EBF00221146E2
:10051C004068FFF731BF002211464068FFF71CBF4F
:10052C0070B516468EB0044608A8FFF77BFF112263
:10053C00002103A800F017FE304600F057FE0025FE
:10054C000A4B009581B25B6803AA3046FFF770FE38
:10055C0020B129462046FFF785FF03E003A920467A
:10056C00FFF76EFF20460EB070BD00BF780500206F
:10057C00024B034A1A6000225A607047C8000020E0
:10058C00781A0A08F8B506460D468F180024BD42A5
:10059C000CD0336815F8011B9B683046984700282F
:1005AC0001DB0444F3E7002C08BF04462046F8BDE9
:1005BC0070B505460C46084649B100F017FE2B688D
:1005CC00024621462846BDE87040DB68184770BDDE
:1005DC0003689B681847012A98BF0A2230B50B465E
:1005EC008BB000218DF824100DF12304B3FBF2F530
:1005FC0005FB1233DBB2092B94BF30333733DBB23C
:10060C00214604F801392B46002DEFD1FFF7D0FF1E
:10061C000BB030BD10B422B90368C9B29B6810BCD2
:10062C001847D2B210BCFFF7D6BFFFF7F3BF10B517
:10063C000446FFF7CCFE204610BD00000348002303
:10064C008360034A034900F02DBB00BFD00000209B
:10065C00B80000203B060A08704710B5044610216C
:10066C0000F025FB204610BD70B504460E46074B26
:10067C000025036040F80C5FFFF73AFD3046267109
:10068C00FFF766FDA560204670BD00BFAC1A0A08D6
:10069C004FF6FF72034B0020187058809A80FFF7BA
:1006AC00D7BD00BFE0000020F0B5144B144F1E68FE
:1006BC00144B064418683B6806449E428BB01BD012
:1006CC000AA840F8286D00F04BFC0446436901ADC4
:1006DC0003F26C7343610FCC0FC50FCC0FC5D4F86C
:1006EC0000E0094CC5F800E001AD0FCD0FC40FCDF3
:1006FC000FC43E60C4F800E00BB0F0BD1801002040
:10070C001401002010010020E800002008B5002092
:10071C00FFF7DAFD28B1FFF7CFFD80F00100C0B282
:10072C0008BD012008BD10B50020FFF701FD0446EF
:10073C0068B9FFF785FD01280BD12046FFF798FD1E
:10074C0038B9FFF7E3FF30B9FFF7AEFDF9E7012049
:10075C0010BD002010BDFFF7D9FF0020FFF7E8FC0B
:10076C00003018BF012010BD08B5FFF7DCFFBDE855
:10077C000840FFF7D5BC000008B5FFF7F5FFFFF701
:10078C0093FF014BD86808BDE8000020024B1A68A3
:10079C00024B1A60704700BF000000200C010020C3
:1007AC0070474174704708B5007CFFF709FD20EADB
:1007BC00E07008BD08B5007CFFF7E2FC20EAE070B1
:1007CC0008BD08B5007CFFF7EBFC30EA200028BF21
:1007DC004FF0FF3008BD08B5007CFFF7D9FC30EABC
:1007EC00200028BF4FF0FF3008BD007CFFF7E0BCB5
:1007FC0010B50446142100F05AFA204610BD70B50D
:10080C00457C04460E4625B9007CFFF7D9FC002830
:10081C0005DD3146207CBDE87040FFF7A9BC2846B9
:10082C0070BD000010B504460846114600226260F7
:10083C004FF47A72A260054A20742260012262741D
:10084C001A46FFF78DFC204610BD00BFE41A0A08BB
:10085C0038B50C4D296811F0010411D12846FFF769
:10086C0018FC68B1084A2146084B0948FFF7DAFF23
:10087C002846FFF713FC074A0749054800F012FA0F
:10088C00034838BDB4010020B8010020300100201D
:10089C001C010020B8000020AD070A084174704705
:1008AC00704708B50021007CFFF7AAFC30EA200055
:1008BC0028BF4FF0FF3008BD08B50121007CFFF7C1
:1008CC009FFC30EA200028BF4FF0FF3008BD08B570
:1008DC00007CFFF78DFC20EAE07008BD08B5007CB9
:1008EC00FFF77EFC20EAE07008BD007CFFF798BCA7
:1008FC0010B50446142100F0DAF9204610BD38B5C5
:10090C000446007C0D46FFF773FC002801DC607C7C
:10091C0028B12946207CFFF77BFC20EAE07038BD2B
:10092C0010B50446002363604FF47A73A360054B43
:10093C00084623600123217463741146FFF748FCB9
:10094C00204610BD141B0A0810B5044614220021C1
:10095C0000F009FC054B20466360054BE36040F258
:10096C00011323818123238210BD00BFC10200200B
:10097C004002002030B50E4D87B001A8FFF7E4FF10
:10098C00296811F0010410D12846FFF782FB60B1F1
:10099C0001AA21460748FFF7C3FF2846FFF77EFB55
:1009AC00054A0649034800F07DF9024807B030BDFE
:1009BC003C020020C4030020B8000020AD080A0847
:1009CC0010B504461422002100F0CDFB054B204647
:1009DC006360054BE36040F2011323818123238282
:1009EC0010BD00BF74040020DC03002010B50E4CB9
:1009FC0086B001A8FFF7E4FF2368DB0710D420467C
:100A0C00FFF747FB60B101AA01210848FFF788FFF7
:100A1C002046FFF743FB064A0649044800F042F91A
:100A2C00024806B010BD00BFD803002060040020AF
:100A3C00B8000020AD080A08002211464068FFF7F4
:100A4C006BBCF0B5164689B011220F460446002146
:100A5C0003A800F088FB304600F0C8FB0025009589
:100A6C0081B27B6803AA3046FFF7E2FB20B129462E
:100A7C002046FFF7F7FC03E003A92046FFF7E0FC54
:100A8C00204609B0F0BD002211464068FFF764BC57
:100A9C00002211464068FFF76FBC00224068FFF748
:100AAC0063BC002281F001014068FFF74DBC0023BC
:100ABC001A4619464068FFF73FBC00231A461946F0
:100ACC004068FFF731BC002211464068FFF714BCA8
:100ADC00002202214068FFF717BC00231A46406829
:100AEC00FFF702BC024B04225A60024A1A6070479C
:100AFC0078050020441B0A0808B5144B33B1FFF7E6
:100B0C0039FF03681B699847002816DC104B33B17A
:100B1C00FFF79EFE03681B699847002810DC0D4BFD
:100B2C000BB1AFF300800C4B7BB1FFF75FFF036899
:100B3C001B699847002806DC08BDAFF30080E5E789
:100B4C00AFF30080EBE7AFF3008008BD00000000BE
:100B5C0000000000000000000000000008B5FFF7D6
:100B6C00CBFFFFF7D5FA014B186008BD88050020B4
:100B7C000248034A0349121A00F0EABA0040024044
:100B8C0004400240B01D0A0807B5002300931A4622
:100B9C006FF07701FFF77EFB03B05DF804FB0000FC
:100BAC0007B543880A2B08D0502B09D1094B1B6879
:100BBC003BB103B05DF804EB1847FFF7E5FF06E027
:100BCC00002300931A466FF07701FFF763FB03B025
:100BDC005DF804FB8005002038B5104C104D2368DF
:100BEC00AB42104B0CBF012200221A7002D0FFF74F
:100BFC00BFFF2560FFF784FA044600F0BDFA0A4BEC
:100C0C0013B12046AFF3008000210748FFF764FBC7
:100C1C00BDE8384000210548FFF732BB00400240D8
:100C2C001E1C279A8405002000000000AD0B0A084A
:100C3C0013B5084C00231A46194600932046FFF7BB
:100C4C0027FC2046044A054902B0BDE8104000F0DC
:100C5C0029B800BF8C050020B8000020ED030A085D
:100C6C0070B50C4C0C4E0D4D00212046FFF7FCFCD2
:100C7C0020460B4C3246294600F014F80121204640
:100C8C00FFF7F2FC324629462046BDE8704000F0E2
:100C9C0009B800BFA4050020B800002065060A08AA
:100CAC00B40500200B460146184600F04BB9FFF77F
:100CBC00EEB90000244B1A68D0075CBF01221A6001
:100CCC00224B1A68D1075CBF01221A60204B1A68AC
:100CDC00D2075CBF01221A601E4B1A68D0075CBF9A
:100CEC0001221A601C4B1A68D1075CBF01221A60E2
:100CFC001A4B1A68D2075CBF01221A60184B1A688B
:100D0C00D0075CBF01221A60164B1A68D1075CBF72
:100D1C0001221A60144B1A68D2075CBF01221A60B8
:100D2C00124B1A68D0075CBF01221A60104B1A686C
:100D3C00D1075CBF01221A600E4B1A68D2075CBF48
:100D4C0001221A60704700BFF0050020EC0500205E
:100D5C00E8050020E4050020E0050020DC0500206B
:100D6C00D8050020D4050020D0050020CC0500209B
:100D7C00C8050020C4050020184B1A68D1075CBFB9
:100D8C0001221A60164B1A68D2075CBF01221A6046
:100D9C00144B1A68D0075CBF01221A60124B1A68F8
:100DAC00D1075CBF01221A60104B1A68D2075CBFD6
:100DBC0001221A600E4B1A68D0075CBF01221A6020
:100DCC000C4B1A68D1075CBF01221A600A4B1A68D7
:100DDC00D2075CBF01221A60704700BF10060020CA
:100DEC000C06002008060020040600200006002047
:100DFC00FC050020F8050020F4050020184B1A68AB
:100E0C00D1075CBF01221A60164B1A68D2075CBF6F
:100E1C0001221A60144B1A68D0075CBF01221A60B9
:100E2C00124B1A68D1075CBF01221A60104B1A686A
:100E3C00D2075CBF01221A600E4B1A68D0075CBF48
:100E4C0001221A600C4B1A68D1075CBF01221A6090
:100E5C000A4B1A68D2075CBF01221A60704700BFA8
:100E6C00300600202C060020280600202406002036
:100E7C00200600201C060020180600201406002066
:100E8C00244B1A68D0075CBF01221A60224B1A68E7
:100E9C00D1075CBF01221A60204B1A68D2075CBFD5
:100EAC0001221A601E4B1A68D0075CBF01221A601F
:100EBC001C4B1A68D1075CBF01221A601A4B1A68C6
:100ECC00D2075CBF01221A60184B1A68D0075CBFAE
:100EDC0001221A60164B1A68D1075CBF01221A60F6
:100EEC00144B1A68D2075CBF01221A60124B1A68A5
:100EFC00D0075CBF01221A60104B1A68D1075CBF87
:100F0C0001221A600E4B1A68D2075CBF01221A60CC
:100F1C00704700BF600600205C06002058060020C9
:100F2C0054060020500600204C06002048060020E5
:100F3C0044060020400600203C0600203806002015
:100F4C003406002010B5054C13462CB10A46014658
:100F5C000220AFF3008010BD204610BD0000000041
:100F6C0038B5074B05461C68E36B1BB92420FFF70B
:100F7C000BFAE063E16B2846BDE8384000F002B89C
:100F8C00680000202DE9F0410C46804600F048FC3A
:100F9C0021460746404600F047FC4669044606F2E7
:100FAC006C76B30705D1642296FBF2F302FB136354
:100FBC004BB94FF4C87596FBF5F305FB1365B5FA01
:100FCC0085F35B0900E001235F4A302505FB03250F
:100FDC0000F05AFA00F05AFA5C4B1B68F3B17B68CC
:100FEC009E4205D13968D8F80030FA6941B90AE057
:100FFC00304600F0A1F90028F4D14FF0FF330DE09A
:10100C00934208DB01E0934207DABA6B9342ACBF20
:10101C000023012302E0002300E001232362236A62
:10102C003C20012B0CBFF96B396A4FF4616391FBC7
:10103C00F3F603FB161393FBF0F200FB123061681E
:10104C002368891AA2681B1A921B3B2B23606160D0
:10105C00A26003DD013161603C3B04E0002B03DA4C
:10106C00013961603C33236063683B2B03DD013243
:10107C00A2603C3B04E0002B03DA013AA2603C3353
:10108C006360A368172B22DDE269183B0132E26131
:10109C00A269A3600132062AC8BF0022A261E268DD
:1010AC0023690132E26055F823108A4246DD013390
:1010BC000C2B08BF6369A2EB0102E26005BF013390
:1010CC0000222361226104BF6361E26136E0002BE0
:1010DC0034DAE2691833013AE261A269A360013A99
:1010EC0048BF0622A261E268013AE26032BB236982
:1010FC00013B01D423611DE00B23236163695A1E5C
:10110C0012F0030F626103F26B7305D1642193FB40
:10111C00F1F201FB12324AB94FF4C87193FBF1F2B0
:10112C0001FB1233B3FA83F35B0900E0012303F5EF
:10113C00B673E361236955F82330E36000F0A5F939
:10114C002046BDE8F08100BFD81C0A0880060020AC
:10115C0010B5431E0A44914204D011F8014B03F818
:10116C00014FF8E710BD03460244934202D003F846
:10117C00011BFAE77047000038B5124B05461C6896
:10118C00A36BD3B91820FFF7FFF843F20E33A0631B
:10119C0003804AF6CD33438041F2342383804EF2F0
:1011AC006D63C3804DF6EC630381052343810B23F0
:1011BC00838101220023C0E90423A36B00221D615B
:1011CC005A6138BD6800002010F8012B11F8013B62
:1011DC00012A28BF9A42F7D0D01A7047034611F85B
:1011EC00012B03F8012B002AF9D17047034613F8A1
:1011FC00012B002AFBD1181A0138704730B582B187
:10120C00451E013915F8013F11F8014FA34206D1D3
:10121C00EC431444E04201D0002BF3D11C46181BC4
:10122C0030BD104630BD00002DE9F0470E4680461B
:10123C003B48D0F80090354615F8014B09EB0400FB
:10124C00407800F0080000F0FF0708B12E46F2E7E6
:10125C002D2C03D1B51C7478012703E02B2C04BF73
:10126C007478B51C13B1102B0AD153E0302C4FD12C
:10127C00287800F0DF00582845D16C78102302350F
:10128C004FF0FF3CBCFBF3FC03FB0CFA00266FEAAF
:10129C000A0A304609EB040E9EF801E01EF0040F1A
:1012AC0001D0303C0BE01EF0030E1AD0BEF1010F42
:1012BC000CBF4FF0370E4FF0570ECEEB0404A34289
:1012CC000FDD002E08DB604506D801D1544503DC48
:1012DC0003FB0040012601E04FF0FF3615F8014BEF
:1012EC00D8E7002E07DA2223C8F800304FF0FF3081
:1012FC002AB9BDE8F08707B1404272B106B1691E48
:10130C001160BDE8F0873024002BB9D10823B7E772
:10131C000A23B5E7302CABD0B2E7BDE8F08700BFAD
:10132C000400002013460A46014602480068FFF7F5
:10133C007BBF00BF680000202DE9F74F044600F08A
:10134C006FFA40F2B1739C4240F3968040F26D15F7
:10135C006FF4F663E318A4F2B2729B1005FB02352E
:10136C00A4F26D726FF0630392FBF3F36FF4C86237
:10137C002B44A5184FF4C87294FBF2F795FBF2F5C9
:10138C0002FB17471D44642394FBF3F6B7FA87FE60
:10139C00014603FB164600F13803019304F00303E6
:1013AC0044604FEA5E1E00934FF0070C0B7A4A2BF9
:1013BC000ED14B69009AEC1802B906B927B93B2B30
:1013CC00D4BF0023012300E000232344013B3FE072
:1013DC00442B02D14B692B443AE0009B2BB9002ED5
:1013EC000CBFF0464FF0010800E0F046A946244B34
:1013FC00302202FB0838CC68A8F1040A0123A3426E
:10140C0004DA5AF804BF0133D944F8E709F10403AC
:10141C0093FBFCFBCBEBCB0ACAEB030A4B69012C0D
:10142C00B8BF0124B3EB0A0A0B6904F1804403F141
:10143C00FF3304F1FF3448BF0AF1070AC3EBC303BF
:10144C0058F824405344A34201DB073BFBE74B44D1
:10145C008C690C4A02FB03430C6A234441F81C3F81
:10146C00019B9942A2D1C369826B9342ACBF00230A
:10147C0001230360012000E0002003B0BDE8F08FE1
:10148C00D81C0A088051010070477047014B18683E
:10149C0000F002B8680000202DE9F04F8DB007462F
:1014AC0000F0BEF9B0490446384600F0B1F9AF4E31
:1014BC00054660B9AE4BAF4A1860AF4B1860AF4BE6
:1014CC0030681A605A60FEF767FF356048E1316892
:1014DC0079B93068FEF760FF2846FFF787FE411C9C
:1014EC003846FEF769FF306048B12946FFF776FEB3
:1014FC0005E0FFF769FE002800F03281E9E72B7860
:10150C000AAE3A2B08BF013533469D4A9D49284601
:10151C00FEF74AFF002840F323810A9BEF18EB5C8F
:10152C002D2B03D101374FF0FF3503E02B2B08BFD8
:10153C00013701250DF1200A0DF11E0B4FF00008AB
:10154C000396CDF808A00196CDF800B0334607AA53
:10155C008D493846ADF81E80ADF82080FEF724FF8B
:10156C00404540F3FD80BDF81E20BDF820303C21E5
:10157C0001FB0233BDF81C204FF4616101FB023307
:10158C005D437F4B25627D4DDFF808922B600A9BF3
:10159C004A461F447B4933463846FEF705FF404513
:1015AC0008DC2B68226A6B60714B1A60724BC3F8B3
:1015BC000080D5E00A9BC5F80490FD18FB5C2D2B30
:1015CC0003D101354FF0FF3703E02B2B08BF01355A
:1015DC0001270023ADF81C30ADF81E30ADF82030DB
:1015EC000A930396CDF808A00196CDF800B03346C7
:1015FC0007AA65492846FEF7D7FE002804DC236AB3
:10160C00A3F56163E3630EE0BDF81E20BDF8203046
:10161C003C2101FB0233BDF81C204FF4616101FB3E
:10162C0002335F43E76327460A9B4FF000091D44D2
:10163C002B782C2B08BF013595F80080B8F14D0F95
:10164C0026D10DF12603029309AB00930396019664
:10165C0033460DF122024D492846FEF7A5FE03281C
:10166C007ED1BDF822104B1E0B2B79D8BDF824204F
:10167C00531E042B74D8BDF82630062B70D887F86F
:10168C000880F9603A617B610A9B05EB03082AE04C
:10169C00B8F14A0F06BF4346013544230A220BA971
:1016AC0028460593FFF73EFEDDF82C80ADF82600AA
:1016BC004545059B14D14D23B9F1000F07D1237279
:1016CC000323E36002232361C4F814900BE084F835
:1016DC0024300B23A3620123E3620023236302E083
:1016EC0080B23B7278610223ADF81C300023ADF858
:1016FC001E30ADF820300A9398F800302F2B0BD108
:10170C000396CDF808A00196CDF800B0334607AA91
:10171C001F494046FEF748FEBDF81E20BDF820309C
:10172C003C2101FB0233BDF81C204FF4616101FB2D
:10173C000233BB610A9D09F10109B9F1020F45445D
:10174C0007F11C077FF474AF6068FFF7F5FD226AA0
:10175C00074B1A60E36B9B1A074A18BF01231360EF
:10176C000DB0BDE8F08F00BF381D0A087C060020C4
:10177C00840600203B1D0A08800600206C00002017
:10178C006F0600203F1D0A08621D0A084E1D0A083C
:10179C00611D0A08640600202DE9F84F07468B46A8
:1017AC00904600F0D7F8194B1D689A463DB15C463F
:1017BC00234613F8012B42B13D2A1C46F8D138467A
:1017CC0000F0C9F80020BDE8F88FCBEB0404A94663
:1017DC0059F8040B0028F2D022465946FFF70EFDAB
:1017EC0088B959F8043C1E191B5D3D2B0BD1DAF856
:1017FC0000303846ED1AAD10C8F8005000F0ABF8C8
:10180C00701CBDE8F88F4D46E1E700BFB400002026
:10181C0007B501AAFFF7C0FF03B05DF804FB000099
:10182C0000487047740000200268464BF0B592FBEC
:10183C00F3F403FB1422002ABCBF02F5A83202F514
:10184C00C0724FF4616092FBF0F300FB13224FF077
:10185C003C008B6092FBF0F300FB132204F52F2469
:10186C00ACBF04F66C2404F66B244B600A600723AF
:10187C00E21C92FBF3F3344DC3EBC30394FBF5F57D
:10188C00D31A48F6AC6240F2B4578B612F4B3048F8
:10189C0003FB0544B4FBF2F2B4FBF7F3B4FBF0F03A
:1018AC002244D21A48F69466131A40F26D12B3FB16
:1018BC00F6F6B3FBF2F0B3FBF7F33444E31A02FB96
:1018CC00103303EB830299240232B2FBF4F254433B
:1018DC00A61C0524B6FBF4F40A2A34BF02266FF0CA
:1018EC00090616444FF4C87202FB05055F1C012E55
:1018FC0098BF0135B3F5997FA7EB040702D3A3F585
:10190C00997214E0820705D16424B0FBF4F204FB55
:10191C0012024AB94FF4C872B0FBF2F402FB140085
:10192C00B0FA80F2520900E001223B331A44A5F2CE
:10193C006C750023CA614D610E61CF600B62084665
:10194C00F0BD00BF80510100B13A02004FC5FDFF50
:10195C00B03A0200704770471D000A085D000A0883
:10196C0089000A088D000A08000000000000000031
:10197C0000000000FD030A08ED030A08EF030A0843
:10198C00626175640053657269616C005553425312
:10199C00657269616C310074797065007061726197
:1019AC006D00636D6400696400686E64007374722A
:1019BC006D0066696C74006C766C006164644861DF
:1019CC006E646C65720072656D6F766548616E64ED
:1019DC006C657200656E756D48616E646C657273D2
:1019EC00004A534F4E53747265616D4C6F6748617A
:1019FC006E646C657200617070002530313075203A
:101A0C00005D20002564002C200028293A200020AD
:101A1C005B00636F6465203D20002569006465747C
:101A2C0061696C73203D20000D0A0066006C6E002D
:101A3C00666E00636F64650064657461696C006E4A
:101A4C006F6E6500747261636500696E666F007716
:101A5C0061726E006572726F720070616E69630004
:101A6C00616C6C000000000000000000C5040A0856
:101A7C00CF040A08D9040A08E3040A08ED040A088A
:101A8C00F9040A0805050A0811050A0819050A08C7
:101A9C0023050A082D050A080000000000000000BC
:101AAC0065060A0867060A08252B3033643A253088
:101ABC0032750025592D256D2D25645425483A2560
:101ACC004D3A2553257A0061736374696D65000086
:101ADC000000000000000000AD070A08FD070A081E
:101AEC000B080A0891050A08C1070A08E3070A0847
:101AFC00CF070A08F7070A08AF070A08B3070A084E
:101B0C000000000000000000AD080A08FD080A08EB
:101B1C000B090A0891050A08E9080A08AF080A081F
:101B2C00C5080A08F7080A08DB080A08A9080A0801
:101B3C000000000000000000E70A0A08DD0A0A089D
:101B4C00D30A0A08450A0A08C70A0A08BB0A0A087F
:101B5C00AF0A0A08A70A0A089D0A0A08930A0A0883
:101B6C004F0A0A080020202020202020202028288E
:101B7C002828282020202020202020202020202041
:101B8C002020202020881010101010101010101081
:101B9C0010101010100404040404040404040410B1
:101BAC00101010101010414141414141010101013F
:101BBC000101010101010101010101010101010109
:101BCC001010101010104242424242420202020215
:101BDC0002020202020202020202020202020202D9
:101BEC001010101020000000000000000000000089
:101BFC0000000000000000000000000000000000D9
:101C0C0000000000000000000000000000000000C8
:101C1C0000000000000000000000000000000000B8
:101C2C0000000000000000000000000000000000A8
:101C3C000000000000000000000000000000000098
:101C4C000000000000000000000000000000000088
:101C5C000000000000000000000000000000000078
:101C6C000000000000000000000000000000000068
:101C7C000000000000000000000000000000000058
:101C8C000000000000000000000000000000000048
:101C9C000000000000000000000000000000000038
:101CAC000000000000000000000000000000000028
:101CBC000000000000000000000000000000000018
:101CCC000000000000000000430000001F000000A6
:101CDC001C0000001F0000001E0000001F00000080
:101CEC001E0000001F0000001F0000001E0000006E
:101CFC001F0000001E0000001F0000001F0000005D
:101D0C001D0000001F0000001E0000001F0000004E
:101D1C001E0000001F0000001F0000001E0000003D
:101D2C001F0000001E0000001F000000545A004756
:101D3C004D54002531305B5E302D392C2B2D5D251B
:101D4C006E004D256875256E2E256875256E2E2521
:101D5C006875256E002F256875256E3A25687525E2
:101D6C006E3A256875256E00E9000A08B5040A0864
:101D7C007D050A0849060A089D060A0899070A08FB
:101D8C00F10A0A083D0C0A086D0C0A08C10C0A0875
:101D9C00850D0A08090E0A088D0E0A0800000000BD
:041DAC000000000033
:041DB000000000002F
:101DB400D31A0A08701B0A0800000000741C0A08E1
:101DC400941C0A08B41C0A0800000000000000006B
:101DD4000000000000000000D41C0A0800000000FD
:101DE40000000000000000000000000000000000EF
:101DF40000000000000000000000000000000000DF
:101E040000000000000000000000000000000000CE
:101E14000000000000000000080000203B1D0A082C
:101E24003B1D0A0801000000000000004A000000F9
:101E3400000000000000000000000000000000009E
:101E440000000000000000004A0000000000000044
:101E5400000000000000000000000000000000007E
:081E64000000000088060020C8
:101E6C00FFFFFFFF00000102030405060708090A33
:101E7C000B0C0D0E0F101112131415161718191A2E
:081E8C001B1C1D1E1F20280075
:041E94007856341236
:04000005080A001CC9
:00000001FF
